:1000000019C028C027C026C025C024C023C022C0D4
:1000100021C020C01FC01EC01DC062C11BC01AC0AD
:1000200019C018C017C016C015C014C013C012C024
:1000300011C010C011241FBECFEFCDBFDFE3DEBF64
:100040002FE3A0E0BFE301C01D92A730B207E1F7A4
:100050006FD179C3D5CF86E08093010682E4809387
:10006000020687E08093060681E080930B0680936A
:10007000080680910B0680FFFCCF2091100630917E
:100080001106ACECB0E149D320EC3FEF40E050E08A
:1000900022D3C90108951092010682E580930206D9
:1000A00083E08093060681E080930806809108062D
:1000B00080FDFCCF209110063091110680E0E82FE2
:1000C000F0E0EE0FFF1FE75CF647408151812417F7
:1000D000350710F48F5FF3CF08959091150896FFC0
:1000E000FCCF8093180808958091150886FFFCCFF7
:1000F00083E0809314080895CF93C82FC37088E7D6
:100100008093170880E0E9DF80E0E7DF80E1E5DF4A
:100110008C2F806BE2DFE8DF1092063FC093053F33
:10012000CF9108951F93CF93DF93082E000C990B66
:100130008097EC01CC0FDD1FCC0FDD1FC80FD91F3E
:1001400080E0CBDFC65BD84715E08991C6DF115050
:10015000E1F78091063F8A5F8093063F8B3778F006
:10016000C3DF8091053F8F5F8093053FC5DF88E740
:100170008093170880E4DF91CF911F91AECFDF917C
:10018000CF911F910895CF93C82F88E780931708C8
:1001900080E4A3DF80E0CA3018F08F5FCA50FBCF45
:1001A000805DC0DF80E38C0FBDDFCF919DCF0F93CB
:1001B0001F93CF93DF938C0188E78093170880E427
:1001C0008CDFD0E0C5E0C150D0F0EC2FF0E0EE0FB6
:1001D000FF1FE65DF6472081318180E0021713079B
:1001E00028F08F5F021B130BD1E0F8CFC11101C0C3
:1001F000DF5F805DD11101C080E294DFE4CFDF9149
:10020000CF911F910F9170CF0F931F93CF93DF93D7
:100210008C0188E78093170880E45FDFE80189910B
:10022000882311F07FDFFBCFDF91CF911F910F91DA
:100230005BCF88E78093170880E44FDF8091063F0B
:1002400091E0980F9093063F87FD02C080E0F5CFC4
:100250004BDF8091053F8F5F8093053F4DCFD4DF0B
:10026000E8CF893B2BE0920710F088EB9BE020E081
:1002700031E0320FE22FF0E0EE0FFF1FE65BF647B2
:10028000408151814817590748F12093043F20913C
:10029000A000287F2093A0002091A000E091043FBF
:1002A000F0E0EC5CF6473081232B2093A00029E29C
:1002B0002A95F1F700C09C01AFEFB0E02ED2E0919B
:1002C000043FF0E0EE0FFF1FE65BF647208131812F
:1002D00050E040E000D2209381060895232FC8CF3C
:1002E0001F920F920FB60F9211248F939F93AF938B
:1002F000BF9381E08093460A8091003F9091013F37
:10030000A091023FB091033F0196A11DB11D8093C2
:10031000003F9093013FA093023FB093033FBF91F2
:10032000AF919F918F910F900FBE0F901F901895D6
:10033000CF93DF93CDB7DEB72C97CDBFDEBF88ED6F
:1003400093E084BF9093610081E0809316088093CE
:1003500013088093150888E78093170880E0BDDEB6
:1003600021E439E829833A830AE419E8A981BA81AA
:100370008D91A983BA83B1DEE981FA810E171F0737
:10038000A9F7B2DE8091160484608093160481E49C
:10039000809380068091130484608093130480917D
:1003A000170484608093170481E08093000690E630
:1003B000909303069091A00090639093A000909179
:1003C000A10092609093A10027E833E120934C0AAA
:1003D00030934D0A8093400A8093450A789408EC44
:1003E00010E028EB3BE02B873C872CE3222E312CBE
:1003F00080E082DE1EDF1DDF1CDF1BDF81E07CDE94
:1004000084E599E82CDF88E699E829DF8CE799E80C
:1004100026DF41DE813091F180E06EDE8DE899E8E3
:10042000F3DE8B859C85C3DE83E999E8EDDEC801A8
:10043000BEDE87E999E813DF2EDE833081F4EB8599
:10044000FC85EC59FF4FEB87FC87E138FC4020F03E
:1004500044EC59E04B875C871EDE8111FDCF1BDE2B
:100460008230B9F608531F4F013D57E0150710F0D1
:1004700008EC10E010DE8111FDCFCBCFECDD4B8519
:100480005C854817590740F6E6DD5C01C801E9DEE6
:10049000F894C090003FD090013FE090023FF09070
:1004A000033F789458EEC50E53E0D51EE11CF11CB5
:1004B00081E022DE87EB99E8D2DE8AE999E8CFDE97
:1004C00087EB99E8CCDE8FE39DE0A3E0815090407C
:1004D000A040E1F700C00000BEDD4091810695011B
:1004E000281B390BA8EEB3E018D12B013C01E09199
:1004F000043FF0E0EE0FFF1FE65BF647A081B181FD
:10050000242F30E00AD12FEF30E040E050E0E3D07C
:10051000C301B201E0D029873A87912C812C412C6C
:10052000512C320119821A821B821C828091810611
:10053000882309F4A9C0F8948091003F9091013F6D
:10054000A091023FB091033F78948C159D05AE05B4
:10055000BF0588F388EEC80E83E0D81EE11CF11CAD
:100560007ADD5C0120918106E091043FF0E0EE0F1E
:10057000FF1FE65BF647A081B18130E0CED02FEFC0
:1005800030E040E050E0A7D02D833E834F83588772
:10059000AB85BC85AA16BB0660F4809181068150AC
:1005A00080938106B4EFAB16B1E0BB0610F4109255
:1005B0008106EFEF8E1A9E0A29813A814B815C8178
:1005C0008D819E81AF81B885280F391F4A1F5B1F1F
:1005D00029833A834B835C83D5012D813E814F81F2
:1005E0005885A7D028EE33E040E050E074D044278F
:1005F0005527420E531E641E751E81E07DDDC50128
:10060000D6DD8FEA99E800DE8D819E81D0DD87E915
:1006100099E825DE89859A85CADD88EB99E8F4DDBD
:10062000C40160E17EE043D0862FADDD80EC99E827
:10063000EBDDC401B1013BD0B82ECB01B10137D005
:10064000A2DD80EC99E8E0DD8B2D9DDD87EB99E85C
:1006500006DE69817A818B819C8120E13EE040E069
:1006600050E039D0C901A3DD82EC99E8CDDDC301AA
:10067000B20120E13EE040E050E02DD0C90197DD1D
:100680008AEC99E8ECDD52CF90E080E0EADD81E091
:1006900033DD8EEC99E8B8DD84EE99E8E0DDFBDC33
:1006A0008130E9F7D8DC853F9140C8F7A1CEAA1B7D
:1006B000BB1B51E107C0AA1FBB1FA617B70710F04D
:1006C000A61BB70B881F991F5A95A9F7809590957F
:1006D000BC01CD010895A1E21A2EAA1BBB1BFD018E
:1006E0000DC0AA1FBB1FEE1FFF1FA217B307E40711
:1006F000F50720F0A21BB30BE40BF50B661F771F69
:10070000881F991F1A9469F7609570958095909548
:100710009B01AC01BD01CF010895A29FB001B39F21
:10072000C001A39F01D0B29F700D811D1124911DA6
:100730000895F3DFA59F900DB49F900DA49F800DA9
:0A074000911D11240895F894FFCFD5
:10074A00000000000000002F00000007000700144E
:10075A007F147F14242A7F2A1223130864623649DD
:10076A005522500005030000001C224100004122CE
:10077A001C0014083E081408083E08080000A0607F
:10078A000008080808080060600000201008040239
:10079A003E5149453E00427F40004261514946214F
:1007AA0041454B311814127F1027454545393C4ABB
:1007BA00494930017109050336494949360649490B
:1007CA00291E003636000000563600000814224161
:1007DA0000141414141400412214080201510906C9
:1007EA00324959513E7C1211127C7F494949363EA1
:1007FA00414141227F4141221C7F494949417F09A8
:10080A000909013E4149497A7F0808087F00417F6A
:10081A0041002040413F017F081422417F4040406F
:10082A00407F020C027F7F0408107F4E7101714ED7
:10083A007F090909063E4151215E7F091929464669
:10084A004949493101017F01013F4040403F1F2092
:10085A0040201F3F4038403F631408146307087064
:10086A0008076151494543007F41410002040810CD
:10087A00200041417F000402010204404040404000
:10088A00000102040020545454787F484444383804
:10089A0044444420384444487F3854545418087E09
:1008AA0009010218A4A4A47C7F0804047800447DEA
:1008BA0040004080847D007F1028440000417F4032
:1008CA00007C041804787C080404783844444438CA
:1008DA00FC2424241818242418FC7C08040408483E
:1008EA0054545420043F4440203C4040207C1C2067
:1008FA0040201C3C4030403C44281028441CA0A006
:10090A00A07C4464544C44083641410000007F00F6
:10091A000000414136080804081008FFFFFFFFFFE6
:10092A0001000A006400E8031027000104020354CE
:10093A0003550200010000C8A1A81FDA028D14AFF6
:10094A00F401E8035405E108450F4D616B65207910
:10095A006F75722073657474696E67732C00636FA8
:10096A006E6E656374207468652062617474657262
:10097A007900616E6420707265737320535441521A
:10098A00542E005365743A20006D5620006D4100C4
:10099A003C3C3C3C3C205354415254494E47203E37
:1009AA003E3E3E3E006D56202020202020006D4F06
:1009BA002020202020003A006D41682020202000BD
:1009CA006D5768004469736368617267696E67206E
:1009DA0066696E69736865642C0072656D6F766509
:0F09EA0020746865206261747465727920210041
:00000001FF
